:020000040800F2
:1000000000280020F51200085D12000863120008A5
:10001000691200086F120008751200080000000045
:100020000000000000000000000000007B1200083B
:100030008712000800000000931200089F120008B9
:100040003D1300083D1300083D1300083D13000850
:100050003D1300083D1300083D1300083D13000840
:100060003D1300083D1300083D1300083D13000830
:100070003D1300083D1300083D1300083D13000820
:100080003D1300083D1300083D1300083D13000810
:100090003D1300083D1300083D1300083D13000800
:1000A0003D1300083D1300083D1300083D130008F0
:1000B000AD1200083D130008000000003D130008C9
:1000C0003D13000800000000000000003D13000880
:1000D000000000003D1300083D1300080000000070
:1000E0003D1300083D1300083D1300080000000008
:1000F0000000000000000000000000000000000000
:0C01000000000000000000005FF808F1A3
:10010C0010B5054C237833B9044B13B10448AFF345
:10011C0000800123237010BD34000020000000007B
:10012C00AC29000808B5034B1BB103490348AFF3D6
:10013C00008008BD0000000038000020AC29000839
:10014C0080B483B000AF7860074B1B687A6892FB71
:10015C00F3F3064A1360064B00221A6000BF0C37FB
:10016C00BD4680BC704700BF040000206400002026
:10017C000000002080B400AF074B1B68013B064A0F
:10018C001360054B1B68002B02DC044B01221A6028
:10019C0000BFBD4680BC70476400002000000020FA
:1001AC0080B500AFAC4B1B78032B00F2E28101A2AF
:1001BC0052F823F0D1010008330200084B03000869
:1001CC007D040008002000F0A5FA0346002B0ED198
:1001DC00012000F09FFA0346002B08D1022000F00A
:1001EC0099FA0346002B02D19C4B01221A60002085
:1001FC0000F090FA0346002B00F0BD81974B1B6872
:10020C00012B40F0B881944B01221A70944B0022C0
:10021C001A60934B1B68DBB2184600F0A5FC8F4BA1
:10022C0000221A60A7E1002000F074FA0346002BAC
:10023C000ED1012000F06EFA0346002B08D10220EB
:10024C0000F068FA0346002B02D1844B01221A609D
:10025C00002000F05FFA0346002B12D07F4B1B6886
:10026C00012B0ED17C4B02221A707E4B00221A609D
:10027C007C4B1B68DBB2184600F076FC774B0022F7
:10028C001A60012000F046FA0346002B11D0734B84
:10029C001B68012B0DD1724B1B680133704A136024
:1002AC006F4B1B68DBB2184600F05EFC6B4B0022F8
:1002BC001A60022000F02EFA0346002B0BD0674B7D
:1002CC001B68012B07D1664B1B68184600F02EFEED
:1002DC00624B00221A60012000F036FA0346002B14
:1002EC0012D0614B1B68012B0ED15D4B1B68013387
:1002FC005B4A13605A4B1B68DBB2184600F034FCA7
:10030C004FF4FA70FFF71CFF012000F031FA03469E
:10031C00002B00F03281544B1B68012B40F02D81D7
:10032C004F4B1B6801334E4A13604D4B1B68DBB2BD
:10033C00184600F019FC3220FFF702FF1DE10020E7
:10034C0000F0E8F90346002B0ED1012000F0E2F991
:10035C000346002B08D1022000F0DCF90346002BE9
:10036C0002D13E4B01221A60002000F0D3F9034663
:10037C00002B12D0394B1B68012B0ED1364B0322AC
:10038C001A703A4B00221A60384B1B68DBB21846C5
:10039C0000F0EAFB314B00221A60012000F0BAF9A0
:1003AC000346002B11D02D4B1B68012B0DD12D4B6F
:1003BC001B6801332B4A13602A4B1B68DBB21846AF
:1003CC0000F0D2FB254B00221A60022000F0A2F9AB
:1003DC000346002B0BD0214B1B68012B07D1214B63
:1003EC001B68184600F0B2FD1C4B00221A6001205D
:1003FC0000F0AAF90346002B12D01B4B1B68012BF3
:10040C000ED1184B1B680133164A1360154B1B6831
:10041C00DBB2184600F0A8FB4FF4FA70FFF790FE21
:10042C00012000F0A5F90346002B00F0A8800E4B2C
:10043C001B68012B40F0A3800A4B1B680133094A4F
:10044C001360084B1B68DBB2184600F08DFB3220A2
:10045C00FFF776FE93E000BF500000205400002010
:10046C00580000205C0000200000002060000020EC
:10047C00002000F04FF90346002B0ED1012000F0B4
:10048C0049F90346002B08D1022000F043F903463A
:10049C00002B02D13C4B01221A60002000F03AF9EB
:1004AC000346002B09D0384B1B68012B05D1374B69
:1004BC0000221A70344B00221A60012000F02AF935
:1004CC000346002B11D0304B1B68012B0DD1304B48
:1004DC001B6801332E4A13602D4B1B68DBB2184688
:1004EC0000F042FB284B00221A60022000F012F9A7
:1004FC000346002B0BD0244B1B68012B07D1244B3C
:10050C001B68184600F032FD1F4B00221A600120B8
:10051C0000F01AF90346002B12D01E4B1B68012B5E
:10052C000ED11B4B1B680133194A1360184B1B6807
:10053C00DBB2184600F018FB4FF4FA70FFF700FE20
:10054C00012000F015F90346002B1AD0114B1B6843
:10055C00012B16D10E4B1B6801330D4A13600C4B4B
:10056C001B68DBB2184600F0FFFA3220FFF7E8FDFB
:10057C0007E000BF06E000BF04E000BF02E000BFE0
:10058C0000E000BF00BF80BD5400002050000020E0
:10059C00600000200000002080B400AF024B1B78EC
:1005AC001846BD4680BC70475000002080B582B014
:1005BC0000AF00237B6093E04E4A7B6813441978AC
:1005CC004D4A7B6813440A461A707B68022B21D073
:1005DC007B68022B2ADC7B68002B03D07B68012B09
:1005EC000CD023E00121454801F0B2F9034619462D
:1005FC00404A7B6813440A461A7017E002213F48B0
:10060C0001F0A6F9034619463A4A7B6813440A4698
:10061C001A700BE00421394801F09AF90346194687
:10062C00344A7B6813440A461A7000BF314A7B680F
:10063C0013441A7830497B680B441B789A424CD18E
:10064C002C4A7B68134419782D4A7B6813440A465C
:10065C001A702B4A7B6813441B78002B29D1294B29
:10066C005B88632B0AD8274A7B6832F81330013336
:10067C0099B2244A7B6822F8131004E0224A7B6862
:10068C00134401221A70214B5B88B3F5967F0AD272
:10069C001C4A7B6832F81330013399B2194A7B68D3
:1006AC0022F8131019E01A4A7B68134401221A70BD
:1006BC0013E0144A7B68002122F81310124A7B685D
:1006CC00134400221A70114A7B68002122F813107F
:1006DC000F4A7B68134400221A707B6801337B60DD
:1006EC007B68022B7FF768AF00BF00BF0837BD46A1
:1006FC0080BD00BF6C00002070000020000C014089
:10070C0068000020740000207C0000208000002085
:10071C008800002080B483B000AF0346FB71FB79E6
:10072C00022B01D9002307E0FB79064AD35C002B8E
:10073C000CBF01230023DBB218460C37BD4680BC2E
:10074C00704700BF6800002080B483B000AF034640
:10075C00FB71FB79022B01D9002302E0FB79034AE0
:10076C00D35C18460C37BD4680BC70477C0000201B
:10077C0080B483B000AF0346FB71FB79022B01D927
:10078C00002302E0FB79034AD35C18460C37BD46C4
:10079C0080BC70478800002080B483B000AF0D4B44
:1007AC001B684FF47A7292FBF3F37B607B68DA0F71
:1007BC0013445B107B60084B1B687A6892FBF3F365
:1007CC00064A1360064B00221A6000BF0C37BD4668
:1007DC0080BC70470C000020080000209000002016
:1007EC008C00002080B483B000AF7860074B1B688E
:1007FC007A6892FBF3F3064A1360064B00221A60E8
:10080C0000BF0C37BD4680BC704700BF08000020FD
:10081C00900000208C00002080B400AF074B1B68B8
:10082C00013B064A1360054B1B68002B02DC044B92
:10083C0001221A6000BFBD4680BC704790000020AA
:10084C008C00002080B582B000AF786039607B6886
:10085C00032B4BD801A252F823F000BF79080008F3
:10086C0099080008B9080008D908000800221021CE
:10087C00474801F084F801222021454801F07FF817
:10088C0001224021424801F07AF82FE00122102188
:10089C003F4801F074F8002220213D4801F06FF828
:1008AC00012240213A4801F06AF81FE00122102190
:1008BC00374801F064F801222021354801F05FF837
:1008CC0000224021324801F05AF80FE00122102199
:1008DC002F4801F054F8012220212D4801F04FF847
:1008EC00012240212A4801F04AF800BF3B68032B43
:1008FC004AD801A252F823F015090008350900085E
:10090C00550900087509000800220221204801F051
:10091C0036F8012204211E4801F031F80122082189
:10092C001B4801F02CF82FE001220221184801F09D
:10093C0026F800220421164801F021F80122082192
:10094C00134801F01CF81FE001220221104801F0AD
:10095C0016F8012204210E4801F011F8002208219A
:10096C000B4801F00CF80FE001220221084801F0BD
:10097C0006F801220421064801F001F801220821A1
:10098C00034800F0FCFF00BF00BF0837BD4680BD28
:10099C000008014080B500AF0D4B1B68002B14D034
:1009AC000C4B1B68002B07D100210020FFF74AFFDE
:1009BC00084B01221A6006E003210320FFF742FFD7
:1009CC00044B00221A60FFF7E7FE00BF80BD00BF9A
:1009DC008C0000209800002080B500AF0D4B1B68E8
:1009EC00002B14D00C4B1B68002B07D101210120CC
:1009FC00FFF728FF084B01221A6006E003210320B1
:100A0C00FFF720FF044B00221A60FFF7C5FE00BF62
:100A1C0080BD00BF8C0000209800002080B500AF86
:100A2C000D4B1B68002B14D00C4B1B68002B07D1F3
:100A3C0002210220FFF706FF084B01221A6006E094
:100A4C0003210320FFF7FEFE044B00221A60FFF780
:100A5C00A3FE00BF80BD00BF8C00002098000020CA
:100A6C0080B584B000AF0346FB71FA793C4BA3FB15
:100A7C000213D9080B469B000B445B00D31AFB7383
:100A8C00FB79374AA2FB0323DB08DAB2344BA3FB16
:100A9C000213D9080B469B000B445B00D31ABB73A3
:100AAC00FB7B03F00103DBB21A464FF480712D4837
:100ABC0000F065FFFB7B5B08DBB203F00103DBB2EC
:100ACC001A464FF40071274800F059FFFB7B9B0836
:100ADC00DBB203F00103DBB21A464FF4806121480C
:100AEC0000F04DFFFB7BDB08DBB203F00103DBB254
:100AFC001A464FF400611B4800F041FFBB7B03F02A
:100B0C000103DBB21A464FF48051164800F037FF50
:100B1C00BB7B5B08DBB203F00103DBB21A464FF47C
:100B2C000051104800F02BFFBB7B9B08DBB203F09D
:100B3C000103DBB21A464FF480410A4800F01FFF54
:100B4C00BB7BDB08DBB203F00103DBB21A464FF4CC
:100B5C000041044800F013FF00BF1037BD4680BDB4
:100B6C00CDCCCCCC0008014080B584B000AF03469E
:100B7C00FB71FA793B4BA3FB0213D9080B469B0084
:100B8C000B445B00D31AFB73FB79364AA2FB03239D
:100B9C00DB08DAB2334BA3FB0213D9080B469B00DC
:100BAC000B445B00D31ABB73FB7B03F00103DBB27A
:100BBC001A4620212C4800F0E2FEFB7B5B08DBB2DE
:100BCC0003F00103DBB21A464021274800F0D7FEA0
:100BDC00FB7B9B08DBB203F00103DBB21A468021DE
:100BEC00214800F0CCFEFB7BDB08DBB203F00103F9
:100BFC00DBB21A464FF480711B4800F0C0FEBB7B81
:100C0C0003F00103DBB21A464FF40071164800F0F2
:100C1C00B6FEBB7B5B08DBB203F00103DBB21A460A
:100C2C004FF48061104800F0AAFEBB7B9B08DBB23E
:100C3C0003F00103DBB21A464FF400610A4800F0DE
:100C4C009EFEBB7BDB08DBB203F00103DBB21A4672
:100C5C004FF48051044800F092FE00BF1037BD469F
:100C6C0080BD00BFCDCCCCCC000C014080B500AF1A
:100C7C005E4B1B68002B00F0B6805D4B1B685D4A19
:100C8C00126811461846FFF7DDFD594B1B68022B05
:100C9C0034D0022B4EDC002B02D0012B17D049E0B4
:100CAC00554B1B68013B544A1360534B1B68DBB21A
:100CBC001846FFF7D5FE504B1B68002B35D14C4B1B
:100CCC0002221A604D4B1B684B4A13602DE04A4BB5
:100CDC001B68013B484A1360474B1B68DBB2184644
:100CEC00FFF7BEFE444B1B68002B20D1404B00226B
:100CFC001A60434B1B68404A136018E03E4B1B685C
:100D0C00013B3D4A13603C4B1B68DBB21846FFF7B6
:100D1C00A7FE394B1B68002B0BD1354B01221A60F7
:100D2C00384B1B68344A136003E000BF02E000BF7D
:100D3C0000E000BF2F4B1B68022B34D0022B4EDC83
:100D4C00002B02D0012B17D049E02F4B1B68013B25
:100D5C002D4A13602C4B1B68DBB21846FFF704FFBF
:100D6C00294B1B68002B35D1224B02221A60234BD6
:100D7C001B68254A13602DE0234B1B68013B224A5C
:100D8C001360214B1B68DBB21846FFF7EDFE1E4BC0
:100D9C001B68002B20D1174B00221A60184B1B68C4
:100DAC00194A136018E0184B1B68013B164A136074
:100DBC00154B1B68DBB21846FFF7D6FE124B1B68AF
:100DCC00002B0BD10B4B01221A600E4B1B680E4AE9
:100DDC00136003E000BF02E000BF00E000BF4FF46F
:100DEC00FA70FFF7FFFC00BF80BD00BF8C00002035
:100DFC00940000202400002010000020200000207F
:100E0C00180000201C0000201400002080B483B0C7
:100E1C0000AF1C4B1A681C4B1B681A441B4B1B68FD
:100E2C009A4207DD174B1A68174B1B681344174A75
:100E3C00136021E0154B1A68124B1968124B1B6892
:100E4C000B44D31A7B600CE00E4B1B6802330D4A2B
:100E5C0013600D4B1B6801330B4A13607B68033B1B
:100E6C007B607B68022BEFDC7B68012B04D1054B8C
:100E7C001B680133034A136000BF0C37BD4680BCAE
:100E8C00704700BF200000201C000020180000202C
:100E9C0080B582B000AF78607B68032B21D801A2AB
:100EAC0052F823F0C10E0008CB0E0008D70E000834
:100EBC00E30E0008FFF7AAFFFFF7D8FE12E0FFF7DA
:100ECC0069FD0220FFF7CCFD0CE0FFF785FD032048
:100EDC00FFF7C6FD06E0FFF7A1FD0420FFF7C0FDFC
:100EEC0000E000BF00BF0837BD4680BD80B400AF36
:100EFC00084B00221A60084B02221A60074B1B6831
:100F0C00074A1360074B1B68074A136000BFBD46B6
:100F1C0080BC7047940000202400002018000020A2
:100F2C0010000020200000201400002080B582B0AA
:100F3C0000AF7860044A7B681360FFF7D7FF00BFEF
:100F4C000837BD4680BD00BF1800002080B582B0B8
:100F5C0000AF7860044A7B681360FFF7C7FF00BFDF
:100F6C000837BD4680BD00BF1C00002080B582B094
:100F7C0000AF7860044A7B681360FFF7B7FF00BFCF
:100F8C000837BD4680BD00BF2000002080B500AFF3
:100F9C0000F0D0F900F016F800F09CF800F04EF8D4
:100FAC00074801F03DF94FF47A7000F025FAFFF78D
:100FBC00F7F8FFF7F1FA03461846FFF769FFF6E773
:100FCC009C00002080B590B000AF07F118032822D8
:100FDC000021184601F0DCFC3B1D00221A605A600F
:100FEC009A60DA601A610223BB610123BB62102391
:100FFC00FB6200237B6307F11803184600F0D8FC52
:10100C000346002B01D000F0C7F80F237B600023B0
:10101C00BB600023FB6000233B6100237B613B1D15
:10102C000021184600F044FF0346002B01D000F0CD
:10103C00B3F800BF4037BD4680BD000080B586B018
:10104C0000AF07F1080300221A605A609A60DA6058
:10105C003B4600221A605A601D4B4FF080421A60CA
:10106C001B4B41F63F725A60194B00229A60184B89
:10107C000922DA60164B00221A61154B00229A6184
:10108C00134801F07DF80346002B01D000F084F8E2
:10109C004FF48053BB6007F1080319460C4801F06C
:1010AC0013FA0346002B01D000F076F800233B60C6
:1010BC0000237B603B461946054801F0DBFB0346E9
:1010CC00002B01D000F068F800BF1837BD4680BD7A
:1010DC009C00002080B586B000AF07F10803002209
:1010EC001A605A609A60DA60284B9B69274A43F071
:1010FC0004039361254B9B6903F004037B607B68BD
:10110C00224B9B69214A43F0080393611F4B9B6957
:10111C0003F008033B603B6800224FF67E711C48CD
:10112C0000F02DFC00224FF4FF511A4800F027FC70
:10113C004FF67E73BB600123FB6000233B610223EF
:10114C007B6107F108031946114800F087FA072361
:10115C00BB600023FB6000233B6107F108031946C9
:10116C000C4800F07BFA4FF4FF53BB600123FB608B
:10117C0000233B6102237B6107F1080319460548F4
:10118C0000F06CFA00BF1837BD4680BD001002405D
:10119C0000080140000C014080B400AF72B600BFE3
:1011AC00FEE7000080B485B000AF154B9B69144A74
:1011BC0043F001039361124B9B6903F00103BB6085
:1011CC00BB680F4BDB690E4A43F08053D3610C4B69
:1011DC00DB6903F080537B607B680A4B5B68FB60C8
:1011EC00FB6823F0E063FB60FB6843F08063FB600B
:1011FC00044AFB68536000BF1437BD4680BC70477F
:10120C00001002400000014080B584B000AF78604F
:10121C007B681B68B3F1804F13D10C4BDB690B4A15
:10122C0043F00103D361094BDB6903F00103FB605D
:10123C00FB68002200211C2000F0D9F91C2000F0D2
:10124C00F2F900BF1037BD4680BD00BF0010024050
:10125C0080B400AFFEE780B400AFFEE780B400AF0F
:10126C00FEE780B400AFFEE780B400AFFEE780B4C9
:10127C0000AF00BFBD4680BC704780B400AF00BF5C
:10128C00BD4680BC704780B400AF00BFBD4680BC7B
:10129C00704780B500AF00F093F800BF80BD000030
:1012AC0080B500AF024801F007F800BF80BD00BF59
:1012BC009C00002080B400AF00BFBD4680BC7047CE
:1012CC0080B582B000AF78607B681B68B3F1804F4B
:1012DC0005D1FFF76BF9FFF79FFAFEF74BFF00BF45
:1012EC000837BD4680BD00000C480D490D4A00234F
:1012FC0002E0D458C4500433C4188C42F9D30A4ABF
:10130C000A4C002301E013600432A242FBD3FFF726
:10131C00D1FF01F019FBFFF739FE704700000020E8
:10132C0034000020EC29000834000020E8000020E4
:10133C00FEE7000080B500AF084B1B68074A43F07E
:10134C0010031360032000F047F90F2000F008F899
:10135C00FFF728FF0023184680BD00BF0020024085
:10136C0080B582B000AF7860124B1A68124B1B78B4
:10137C0019464FF47A73B3FBF1F3B2FBF3F318464F
:10138C0000F05FF90346002B01D001230EE07B68CF
:10139C000F2B0AD8002279684FF0FF3000F027F9A4
:1013AC00064A7B681360002300E0012318460837C7
:1013BC00BD4680BD28000020300000202C000020FD
:1013CC0080B400AF054B1B781A46054B1B681344C1
:1013DC00034A136000BFBD4680BC7047300000203C
:1013EC00E400002080B400AF024B1B681846BD46D9
:1013FC0080BC7047E400002080B584B000AF7860FA
:10140C00FFF7F0FFB8607B68FB60FB68B3F1FF3F50
:10141C0005D00A4B1B781A46FB681344FB6000BFCF
:10142C00FFF7E0FF0246BB68D31AFA689A42F7D876
:10143C0000BF00BF1037BD4680BD00BF300000208C
:10144C0080B485B000AF78607B6803F00703FB6065
:10145C000C4BDB68BB60BA684FF6FF031340BB60F4
:10146C00FB681A02BB68134343F0BF6343F40033B9
:10147C00BB60044ABB68D36000BF1437BD4680BC58
:10148C00704700BF00ED00E080B400AF044BDB6898
:10149C001B0A03F007031846BD4680BC704700BF0B
:1014AC0000ED00E080B483B000AF0346FB7197F908
:1014BC000730002B0BDBFB7903F01F02064997F971
:1014CC0007305B09012000FA02F241F8232000BF2B
:1014DC000C37BD4680BC704700E100E080B483B09F
:1014EC0000AF03463960FB7197F90730002B0ADB1C
:1014FC003B68DAB20C4997F907301201D2B20B44AF
:10150C0083F800230AE03B68DAB20849FB7903F060
:10151C000F03043B1201D2B20B441A7600BF0C37F6
:10152C00BD4680BC704700BF00E100E000ED00E06C
:10153C0080B489B000AFF860B9607A60FB6803F0E2
:10154C000703FB61FB69C3F10703042B28BF0423CA
:10155C00BB61FB690433062B02D9FB69033B00E03A
:10156C0000237B614FF0FF32BB6902FA03F3DA43CD
:10157C00BB681A407B699A404FF0FF317B6901FAD6
:10158C0003F3D9437B680B40134318462437BD46FD
:10159C0080BC704780B582B000AF78607B68013B3F
:1015AC00B3F1807F01D301230FE00A4A7B68013B32
:1015BC0053600F214FF0FF30FFF790FF054B0022D7
:1015CC009A60044B07221A60002318460837BD4660
:1015DC0080BD00BF10E000E080B582B000AF786045
:1015EC007868FFF72DFF00BF0837BD4680BD80B57A
:1015FC0086B000AF0346B9607A60FB7300237B6151
:10160C00FFF742FF78617A68B9687869FFF790FF55
:10161C00024697F90F3011461846FFF75FFF00BFDF
:10162C001837BD4680BD80B582B000AF0346FB7154
:10163C0097F907301846FFF735FF00BF0837BD464E
:10164C0080BD80B582B000AF78607868FFF7A2FFEC
:10165C00034618460837BD4680BD000080B48BB0E9
:10166C0000AF7860396000237B6200233B6248E165
:10167C0001227B6A02FA03F3FB613B681B68FA697F
:10168C001340BB61BA69FB699A4240F037813B68F1
:10169C005B68A34A93425ED0A14A934275D8A14A93
:1016AC00934258D09F4A93426FD89F4A934252D04C
:1016BC009D4A934269D89D4A93424CD09B4A93428F
:1016CC0063D89B4A934246D0994A93425DD8122BD9
:1016DC002AD8122B59D801A252F823F0631700080C
:1016EC003D1700084F1700089117000897170008BE
:1016FC009717000897170008971700089717000806
:10170C0097170008971700089717000897170008F5
:10171C0097170008971700089717000897170008E5
:10172C004517000859170008824A934213D02CE041
:10173C003B68DB683B6229E03B68DB6804333B6257
:10174C0024E03B68DB6808333B621FE03B68DB68E6
:10175C000C333B621AE03B689B68002B02D10423DC
:10176C003B6213E03B689B68012B05D108233B626D
:10177C007B68FA691A6109E008233B627B68FA69A5
:10178C005A6103E000233B6200E000BFBB69FF2B02
:10179C0001D87B6801E07B6804337B61BB69FF2B5C
:1017AC0002D87B6A9B0002E07B6A083B9B003B6192
:1017BC007B691A680F213B6901FA03F3DB431A407A
:1017CC00396A3B6901FA03F31A437B691A603B6877
:1017DC005B6803F08053002B00F09080564B9B69A4
:1017EC00554A43F001039361534B9B6903F001038A
:1017FC00BB60BB68514A7B6A9B08023352F82330AA
:10180C00FB607B6A03F003039B000F2202FA03F3D5
:10181C00DB43FA681340FB607B68494A93420DD066
:10182C007B68484A934207D07B68474A934201D170
:10183C00022304E0032302E0012300E000237A6A80
:10184C0002F0030292009340FA681343FB603B4999
:10185C007B6A9B080233FA6841F823203B685B687B
:10186C0003F48033002B06D0384B1A683749BB6918
:10187C0013430B6006E0354B1A68BB69DB433349F5
:10188C0013400B603B685B6803F40033002B06D0FD
:10189C002E4B5A682D49BB6913434B6006E02B4B0A
:1018AC005A68BB69DB43294913404B603B685B6852
:1018BC0003F48013002B06D0244B9A682349BB6990
:1018CC0013438B6006E0214B9A68BB69DB431F49CD
:1018DC0013408B603B685B6803F40013002B06D04D
:1018EC001A4BDA681949BB691343CB6006E0174BF6
:1018FC00DA68BB69DB4315491340CB607B6A013363
:10190C007B623B681A687B6A22FA03F3002B7FF434
:10191C00AFAE00BF00BF2C37BD4680BC704700BFC8
:10192C0000003210000031100000221000002110C5
:10193C0000001210000011100010024000000140C5
:10194C0000080140000C014000100140000401405F
:10195C0080B485B000AF78600B467B807B689A685A
:10196C007B881340002B02D00123FB7301E0002382
:10197C00FB73FB7B18461437BD4680BC704780B4A4
:10198C0083B000AF78600B467B8013467B707B780E
:10199C00002B03D07A887B681A6103E07B881A04D9
:1019AC007B681A6100BF0C37BD4680BC70470000D5
:1019BC0080B586B000AF78607B68002B01D1012325
:1019CC006CE27B681B6803F00103002B00F087803E
:1019DC00924B5B6803F00C03042B0CD08F4B5B68B1
:1019EC0003F00C03082B12D18C4B5B6803F480338F
:1019FC00B3F5803F0BD1894B1B6803F40033002BEC
:101A0C006CD07B685B68002B68D1012346E27B6855
:101A1C005B68B3F5803F06D1804B1B687F4A43F46B
:101A2C00803313602EE07B685B68002B0CD17B4B02
:101A3C001B687A4A23F480331360784B1B68774A0F
:101A4C0023F4802313601DE07B685B68B3F5A02F43
:101A5C000CD1724B1B68714A43F4802313606F4B9B
:101A6C001B686E4A43F4803313600BE06B4B1B68AE
:101A7C006A4A23F480331360684B1B68674A23F46B
:101A8C00802313607B685B68002B13D0FFF7AAFCE4
:101A9C00386108E0FFF7A6FC02463B69D31A642BB9
:101AAC0001D90323FAE15D4B1B6803F40033002BCF
:101ABC00F0D014E0FFF796FC386108E0FFF792FCD9
:101ACC0002463B69D31A642B01D90323E6E1534B3D
:101ADC001B6803F40033002BF0D100E000BF7B68DF
:101AEC001B6803F00203002B63D04C4B5B6803F0C4
:101AFC000C03002B0BD0494B5B6803F00C03082B39
:101B0C001CD1464B5B6803F48033002B16D1434B3E
:101B1C001B6803F00203002B05D07B681B69012BAB
:101B2C0001D00123BAE13D4B1B6823F0F8027B681E
:101B3C005B69DB00394913430B603AE07B681B6936
:101B4C00002B20D0364B01221A60FFF74BFC38617A
:101B5C0008E0FFF747FC02463B69D31A022B01D978
:101B6C0003239BE12D4B1B6803F00203002BF0D0E9
:101B7C002A4B1B6823F0F8027B685B69DB00274962
:101B8C0013430B6015E0264B00221A60FFF72AFC6A
:101B9C00386108E0FFF726FC02463B69D31A022B9A
:101BAC0001D903237AE11D4B1B6803F00203002BC0
:101BBC00F0D17B681B6803F00803002B3AD07B68DC
:101BCC009B69002B19D0174B01221A60FFF70AFCF6
:101BDC00386108E0FFF706FC02463B69D31A022B7A
:101BEC0001D903235AE10D4B5B6A03F00203002B6E
:101BFC00F0D0012000F0A6FA1CE00A4B00221A607B
:101C0C00FFF7F0FB38610FE0FFF7ECFB02463B6996
:101C1C00D31A022B08D9032340E100BF0010024065
:101C2C0000004242800442429E4B5B6A03F0020376
:101C3C00002BE9D17B681B6803F00403002B00F038
:101C4C00A6800023FB75974BDB6903F08053002BB8
:101C5C000DD1944BDB69934A43F08053D361914B84
:101C6C00DB6903F08053BB60BB680123FB758E4BB3
:101C7C001B6803F48073002B18D18B4B1B688A4AAA
:101C8C0043F480731360FFF7ADFB386108E0FFF796
:101C9C00A9FB02463B69D31A642B01D90323FDE04F
:101CAC00814B1B6803F48073002BF0D07B68DB68DE
:101CBC00012B06D17B4B1B6A7A4A43F0010313625A
:101CCC002DE07B68DB68002B0CD1764B1B6A754AC8
:101CDC0023F001031362734B1B6A724A23F0040353
:101CEC0013621CE07B68DB68052B0CD16D4B1B6A07
:101CFC006C4A43F0040313626A4B1B6A694A43F053
:101D0C00010313620BE0674B1B6A664A23F0010365
:101D1C001362644B1B6A634A23F0040313627B68EF
:101D2C00DB68002B15D0FFF75DFB38610AE0FFF78D
:101D3C0059FB02463B69D31A41F28832934201D9CE
:101D4C000323ABE0574B1B6A03F00203002BEED0CE
:101D5C0014E0FFF747FB38610AE0FFF743FB02464C
:101D6C003B69D31A41F28832934201D9032395E09F
:101D7C004C4B1B6A03F00203002BEED1FB7D012BB5
:101D8C0005D1484BDB69474A23F08053D3617B680C
:101D9C00DB69002B00F08180424B5B6803F00C0385
:101DAC00082B61D07B68DB69022B46D13F4B0022AC
:101DBC001A60FFF717FB386108E0FFF713FB0246C8
:101DCC003B69D31A022B01D9032367E0354B1B68FF
:101DDC0003F00073002BF0D17B681B6AB3F5803FD6
:101DEC0008D1304B5B6823F400327B689B682D492B
:101DFC0013434B602B4B5B6823F474127B68196A9A
:101E0C007B685B6A0B43274913434B60274B0122CA
:101E1C001A60FFF7E7FA386108E0FFF7E3FA0246C9
:101E2C003B69D31A022B01D9032337E01D4B1B68E6
:101E3C0003F00073002BF0D02FE01C4B00221A6033
:101E4C00FFF7D0FA386108E0FFF7CCFA02463B699D
:101E5C00D31A022B01D9032320E0124B1B6803F089
:101E6C000073002BF0D118E07B68DB69012B01D1EA
:101E7C00012313E00B4B5B68FB60FB6803F48032BF
:101E8C007B681B6A9A4206D1FB6803F470127B686C
:101E9C005B6A9A4201D0012300E0002318461837F0
:101EAC00BD4680BD00100240007000406000424200
:101EBC0080B584B000AF786039607B68002B01D1AD
:101ECC000123D0E06A4B1B6803F007033A689A427F
:101EDC0010D9674B1B6823F0070265493B68134315
:101EEC000B60634B1B6803F007033A689A4201D0FE
:101EFC000123B8E07B681B6803F00203002B20D0A1
:101F0C007B681B6803F00403002B05D0594B5B68FE
:101F1C00584A43F4E06353607B681B6803F0080382
:101F2C00002B05D0534B5B68524A43F4605353600B
:101F3C00504B5B6823F0F0027B689B684D49134360
:101F4C004B607B681B6803F00103002B40D07B685F
:101F5C005B68012B07D1474B1B6803F40033002B44
:101F6C0015D101237FE07B685B68022B07D1414BC5
:101F7C001B6803F00073002B09D1012373E03D4B68
:101F8C001B6803F00203002B01D101236BE0394BDA
:101F9C005B6823F003027B685B68364913434B6034
:101FAC00FFF720FAF8600AE0FFF71CFA0246FB681C
:101FBC00D31A41F28832934201D9032353E02D4BBB
:101FCC005B6803F00C027B685B689B009A42EBD168
:101FDC00274B1B6803F007033A689A4210D2244B34
:101FEC001B6823F0070222493B6813430B60204B0C
:101FFC001B6803F007033A689A4201D0012332E0D0
:10200C007B681B6803F00403002B08D0194B5B683A
:10201C0023F4E0627B68DB68164913434B607B68F2
:10202C001B6803F00803002B09D0124B5B6823F4E8
:10203C0060527B681B69DB000E4913434B6000F058
:10204C0021F802460B4B5B681B0903F00F030A498E
:10205C00CB5C22FA03F3094A1360094B1B68184640
:10206C00FFF77EF9002318461037BD4680BD00BF30
:10207C000020024000100240D42900082800002053
:10208C002C00002090B48AB000AF2A4B3C1D0FCB23
:10209C0084E80F0040F201233B800023FB61002306
:1020AC00BB6100237B6200237B6100233B62224BDC
:1020BC005B68FB61FB6903F00C03042B02D0082B5B
:1020CC0003D02DE01D4B3B622DE0FB699B0C03F014
:1020DC000F0307F12802134413F8243C7B61FB69BE
:1020EC0003F48033002B13D0134B5B685B0C03F0B1
:1020FC00010307F12802134413F8283CBB617B69E8
:10210C000E4A02FB03F2BB69B2FBF3F37B6204E001
:10211C007B690B4A02FB03F37B627B6A3B6202E046
:10212C00064B3B6200BF3B6A18462837BD4690BC45
:10213C00704700BFC42900080010024000127A004A
:10214C0000093D0080B485B000AF78600A4B1B6875
:10215C000A4AA2FB03235B0A7A6802FB03F3FB60C7
:10216C0000BFFB685A1EFA60002BF9D100BF00BFFC
:10217C001437BD4680BC704728000020D34D621038
:10218C0080B582B000AF78607B68002B01D1012351
:10219C0041E07B6893F83D30DBB2002B06D17B68C5
:1021AC00002283F83C207868FFF72EF87B68022227
:1021BC0083F83D207B681A687B6804331946104607
:1021CC0000F06AFA7B68012283F846207B680122C2
:1021DC0083F83E207B68012283F83F207B68012234
:1021EC0083F840207B68012283F841207B68012220
:1021FC0083F842207B68012283F843207B6801220C
:10220C0083F844207B68012283F845207B680122F7
:10221C0083F83D20002318460837BD4680BD0000DA
:10222C0080B485B000AF78607B6893F83D30DBB24A
:10223C00012B01D0012335E07B68022283F83D207D
:10224C007B681B68DA687B681B6842F00102DA6005
:10225C007B681B68164A934209D07B681B68B3F1F4
:10226C00804F04D07B681B68124A934211D17B6863
:10227C001B689B6803F00703FB60FB68062B10D000
:10228C007B681B681A687B681B6842F001021A6045
:10229C0007E07B681B681A687B681B6842F00102C8
:1022AC001A60002318461437BD4680BC704700BF27
:1022BC00002C01400004004080B582B000AF786073
:1022CC007B681B681B6903F00203022B22D17B681D
:1022DC001B68DB6803F00203022B1BD17B681B68B5
:1022EC006FF002021A617B6801221A777B681B6807
:1022FC009B6903F00303002B03D0786800F0B1F95D
:10230C0005E0786800F0A4F9786800F0B3F97B6810
:10231C0000221A777B681B681B6903F00403042BEB
:10232C0022D17B681B68DB6803F00403042B1BD1F0
:10233C007B681B686FF004021A617B6802221A77B3
:10234C007B681B689B6903F44073002B03D078688F
:10235C0000F087F905E0786800F07AF9786800F009
:10236C0089F97B6800221A777B681B681B6903F06C
:10237C000803082B22D17B681B68DB6803F0080379
:10238C00082B1BD17B681B686FF008021A617B68F5
:10239C0004221A777B681B68DB6903F00303002BAC
:1023AC0003D0786800F05DF905E0786800F050F92A
:1023BC00786800F05FF97B6800221A777B681B68ED
:1023CC001B6903F01003102B22D17B681B68DB68A0
:1023DC0003F01003102B1BD17B681B686FF01002ED
:1023EC001A617B6808221A777B681B68DB6903F427
:1023FC004073002B03D0786800F033F905E078685F
:10240C0000F026F9786800F035F97B6800221A771D
:10241C007B681B681B6903F00103012B0ED17B68E1
:10242C001B68DB6803F00103012B07D17B681B6879
:10243C006FF001021A617868FEF742FF7B681B6837
:10244C001B6903F08003802B0ED17B681B68DB6853
:10245C0003F08003802B07D17B681B686FF0800230
:10246C001A61786800F067FA7B681B681B6903F0D7
:10247C004003402B0ED17B681B68DB6803F04003E4
:10248C00402B07D17B681B686FF040021A6178689B
:10249C0000F0F9F87B681B681B6903F02003202B04
:1024AC000ED17B681B68DB6803F02003202B07D15F
:1024BC007B681B686FF020021A61786800F032FAB2
:1024CC0000BF0837BD4680BD80B584B000AF7860D2
:1024DC0039607B6893F83C30012B01D10223B3E0C7
:1024EC007B68012283F83C207B68022283F83D2024
:1024FC007B681B689B68FB60FB6823F07703FB60C1
:10250C00FB6823F47F43FB607B681B68FA689A6066
:10251C003B681B68B3F5005F3ED0B3F5005F00F27B
:10252C008780B3F5805F00F08580B3F5805F7FD83E
:10253C00702B1AD0702B7BD8602B50D0602B77D897
:10254C00502B3CD0502B73D8402B58D0402B6FD8ED
:10255C00302B64D0302B6BD8202B60D0202B67D83D
:10256C00002B5CD0102B5AD062E07B6818683B685B
:10257C0099683B685A683B68DB6800F05CF97B68DB
:10258C001B689B68FB60FB6843F07703FB607B6810
:10259C001B68FA689A604EE07B6818683B6899681B
:1025AC003B685A683B68DB6800F045F97B681B6840
:1025BC009A687B681B6842F480429A603BE07B68B7
:1025CC0018683B6859683B68DB681A4600F0BCF831
:1025DC007B681B685021184600F013F92BE07B68D0
:1025EC0018683B6859683B68DB681A4600F0DAF8F3
:1025FC007B681B686021184600F003F91BE07B68C0
:10260C0018683B6859683B68DB681A4600F09CF810
:10261C007B681B684021184600F0F3F80BE07B68E0
:10262C001A683B681B681946104600F0EAF802E08D
:10263C0000BF00E000BF7B68012283F83D207B686F
:10264C00002283F83C20002318461037BD4680BD7D
:10265C0080B483B000AF786000BF0C37BD4680BC3F
:10266C00704780B483B000AF786000BF0C37BD46B4
:10267C0080BC704780B483B000AF786000BF0C376B
:10268C00BD4680BC704780B483B000AF786000BF9B
:10269C000C37BD4680BC704780B485B000AF786005
:1026AC0039607B681B68FB607B68254A934207D0C6
:1026BC007B68B3F1804F03D07B68224A934208D1E8
:1026CC00FB6823F07003FB603B685B68FA6813439C
:1026DC00FB607B681A4A934207D07B68B3F1804F4A
:1026EC0003D07B68174A934208D1FB6823F44073EC
:1026FC00FB603B68DB68FA681343FB60FB6823F004
:10270C0080023B685B691343FB607B68FA681A6064
:10271C003B689A687B68DA623B681A687B689A62E5
:10272C007B68074A934203D13B681A697B681A633A
:10273C007B6801225A6100BF1437BD4680BC7047CC
:10274C00002C01400004004080B487B000AFF8605A
:10275C00B9607A60FB681B6A7B61FB681B6A23F0BB
:10276C000102FB681A62FB689B693B613B6923F0C1
:10277C00F0033B617B681B013A6913433B617B6946
:10278C0023F00A037B617A69BB6813437B61FB68A6
:10279C003A699A61FB687A691A6200BF1C37BD46B8
:1027AC0080BC704780B487B000AFF860B9607A60C5
:1027BC00FB681B6A23F01002FB681A62FB689B69BA
:1027CC007B61FB681B6A3B617B6923F470437B6113
:1027DC007B681B037A6913437B613B6923F0A0037D
:1027EC003B61BB681B013A6913433B61FB687A6927
:1027FC009A61FB683A691A6200BF1C37BD4680BCFF
:10280C00704780B485B000AF786039607B689B6896
:10281C00FB60FB6823F07003FB603A68FB681343B2
:10282C0043F00703FB607B68FA689A6000BF1437BB
:10283C00BD4680BC704780B487B000AFF860B9600B
:10284C007A603B60FB689B687B617B6923F47F4308
:10285C007B613B681A027B681A43BB6813437A6935
:10286C0013437B61FB687A699A6000BF1C37BD46D5
:10287C0080BC704780B485B000AF786039607B68ED
:10288C0093F83C30012B01D1022341E07B680122FB
:10289C0083F83C207B68022283F83D207B681B6810
:1028AC005B68FB607B681B689B68BB60FB6823F004
:1028BC007003FB603B681B68FA681343FB607B6822
:1028CC001B68FA685A607B681B68144A934209D0EB
:1028DC007B681B68B3F1804F04D07B681B68104A7F
:1028EC0093420CD1BB6823F08003BB603B685B68F0
:1028FC00BA681343BB607B681B68BA689A607B68D4
:10290C00012283F83D207B68002283F83C200023C1
:10291C0018461437BD4680BC704700BF002C0140E0
:10292C000004004080B483B000AF786000BF0C3767
:10293C00BD4680BC704780B483B000AF786000BFE8
:10294C000C37BD4680BC704770B500260C4D0D4C45
:10295C00641BA410A64209D100F022F800260A4DEF
:10296C000A4C641BA410A64205D170BD55F8043B5B
:10297C0098470136EEE755F8043B98470136F2E7E5
:10298C00E4290008E4290008E4290008E8290008E3
:10299C0003460244934200D1704703F8011BF9E748
:1029AC00F8B500BFF8BC08BC9E467047F8B500BF30
:0829BC00F8BC08BC9E46704700
:1029C40002030405060708090A0B0C0D0E0F10106C
:1029D40000000000000000000102030406070809CB
:0429E40031010008B5
:0429E8000D010008D5
:1029EC00010000000A0000000A00000002000000C4
:1029FC0009000000070000000900000002000000B0
:102A0C0007000000020000000024F4001000000089
:042A1C0001000000B5
:04000005080012F5E8
:00000001FF
